{
  "contractName": "Campaign",
  "abi": [
    {
      "inputs": [
        {
          "internalType": "uint256",
          "name": "minimum",
          "type": "uint256"
        },
        {
          "internalType": "address",
          "name": "creator",
          "type": "address"
        }
      ],
      "payable": false,
      "stateMutability": "nonpayable",
      "type": "constructor"
    },
    {
      "constant": true,
      "inputs": [],
      "name": "approvalCount",
      "outputs": [
        {
          "internalType": "uint256",
          "name": "",
          "type": "uint256"
        }
      ],
      "payable": false,
      "stateMutability": "view",
      "type": "function"
    },
    {
      "constant": true,
      "inputs": [
        {
          "internalType": "address",
          "name": "",
          "type": "address"
        }
      ],
      "name": "approvers",
      "outputs": [
        {
          "internalType": "bool",
          "name": "",
          "type": "bool"
        }
      ],
      "payable": false,
      "stateMutability": "view",
      "type": "function"
    },
    {
      "constant": true,
      "inputs": [],
      "name": "manager",
      "outputs": [
        {
          "internalType": "address",
          "name": "",
          "type": "address"
        }
      ],
      "payable": false,
      "stateMutability": "view",
      "type": "function"
    },
    {
      "constant": true,
      "inputs": [],
      "name": "minimumContribution",
      "outputs": [
        {
          "internalType": "uint256",
          "name": "",
          "type": "uint256"
        }
      ],
      "payable": false,
      "stateMutability": "view",
      "type": "function"
    },
    {
      "constant": true,
      "inputs": [
        {
          "internalType": "uint256",
          "name": "",
          "type": "uint256"
        }
      ],
      "name": "requests",
      "outputs": [
        {
          "internalType": "string",
          "name": "description",
          "type": "string"
        },
        {
          "internalType": "uint256",
          "name": "value",
          "type": "uint256"
        },
        {
          "internalType": "address payable",
          "name": "recipient",
          "type": "address"
        },
        {
          "internalType": "bool",
          "name": "complete",
          "type": "bool"
        },
        {
          "internalType": "uint256",
          "name": "approvalCount",
          "type": "uint256"
        }
      ],
      "payable": false,
      "stateMutability": "view",
      "type": "function"
    },
    {
      "constant": false,
      "inputs": [],
      "name": "contribute",
      "outputs": [],
      "payable": true,
      "stateMutability": "payable",
      "type": "function"
    },
    {
      "constant": false,
      "inputs": [
        {
          "internalType": "string",
          "name": "description",
          "type": "string"
        },
        {
          "internalType": "uint256",
          "name": "value",
          "type": "uint256"
        },
        {
          "internalType": "address payable",
          "name": "recipient",
          "type": "address"
        }
      ],
      "name": "createRequest",
      "outputs": [],
      "payable": false,
      "stateMutability": "nonpayable",
      "type": "function"
    },
    {
      "constant": false,
      "inputs": [
        {
          "internalType": "uint256",
          "name": "index",
          "type": "uint256"
        }
      ],
      "name": "approveRequest",
      "outputs": [],
      "payable": false,
      "stateMutability": "nonpayable",
      "type": "function"
    },
    {
      "constant": false,
      "inputs": [
        {
          "internalType": "uint256",
          "name": "index",
          "type": "uint256"
        }
      ],
      "name": "finalizeRequest",
      "outputs": [],
      "payable": false,
      "stateMutability": "nonpayable",
      "type": "function"
    },
    {
      "constant": true,
      "inputs": [],
      "name": "getSummary",
      "outputs": [
        {
          "internalType": "uint256",
          "name": "",
          "type": "uint256"
        },
        {
          "internalType": "uint256",
          "name": "",
          "type": "uint256"
        },
        {
          "internalType": "uint256",
          "name": "",
          "type": "uint256"
        },
        {
          "internalType": "uint256",
          "name": "",
          "type": "uint256"
        },
        {
          "internalType": "address",
          "name": "",
          "type": "address"
        }
      ],
      "payable": false,
      "stateMutability": "view",
      "type": "function"
    },
    {
      "constant": true,
      "inputs": [],
      "name": "getRequestsCount",
      "outputs": [
        {
          "internalType": "uint256",
          "name": "",
          "type": "uint256"
        }
      ],
      "payable": false,
      "stateMutability": "view",
      "type": "function"
    },
    {
      "constant": true,
      "inputs": [],
      "name": "getAllRequests",
      "outputs": [
        {
          "internalType": "string[]",
          "name": "",
          "type": "string[]"
        },
        {
          "internalType": "uint256[]",
          "name": "",
          "type": "uint256[]"
        },
        {
          "internalType": "address[]",
          "name": "",
          "type": "address[]"
        },
        {
          "internalType": "bool[]",
          "name": "",
          "type": "bool[]"
        },
        {
          "internalType": "uint256[]",
          "name": "",
          "type": "uint256[]"
        }
      ],
      "payable": false,
      "stateMutability": "view",
      "type": "function"
    }
  ],
  "bytecode": "0x60806040523480156200001157600080fd5b5060405162001674380380620016748339818101604052620000379190810190620000b5565b80600160006101000a81548173ffffffffffffffffffffffffffffffffffffffff021916908373ffffffffffffffffffffffffffffffffffffffff16021790555081600281905550505062000168565b600081519050620000988162000134565b92915050565b600081519050620000af816200014e565b92915050565b60008060408385031215620000c957600080fd5b6000620000d9858286016200009e565b9250506020620000ec8582860162000087565b9150509250929050565b600062000103826200010a565b9050919050565b600073ffffffffffffffffffffffffffffffffffffffff82169050919050565b6000819050919050565b6200013f81620000f6565b81146200014b57600080fd5b50565b62000159816200012a565b81146200016557600080fd5b50565b6114fc80620001786000396000f3fe6080604052600436106100a75760003560e01c806381d12c581161006457806381d12c58146101c25780638a9cfd5514610203578063937e09b11461022c578063d7bb99ba14610257578063d7d1bbdb14610261578063fb1a002a1461028a576100a7565b806303441006146100ac5780630a144391146100d55780633410452a146101125780634051ddac1461013d578063481c6a751461016c5780636884d0a614610197575b600080fd5b3480156100b857600080fd5b506100d360048036036100ce9190810190610dfa565b6102b9565b005b3480156100e157600080fd5b506100fc60048036036100f79190810190610d6a565b61039f565b604051610109919061117a565b60405180910390f35b34801561011e57600080fd5b506101276103bf565b60405161013491906111ef565b60405180910390f35b34801561014957600080fd5b506101526103cb565b60405161016395949392919061120a565b60405180910390f35b34801561017857600080fd5b50610181610414565b60405161018e91906110e9565b60405180910390f35b3480156101a357600080fd5b506101ac61043a565b6040516101b991906111ef565b60405180910390f35b3480156101ce57600080fd5b506101e960048036036101e49190810190610dfa565b610440565b6040516101fa959493929190611195565b60405180910390f35b34801561020f57600080fd5b5061022a60048036036102259190810190610d93565b610548565b005b34801561023857600080fd5b506102416106bc565b60405161024e91906111ef565b60405180910390f35b61025f6106c2565b005b34801561026d57600080fd5b5061028860048036036102839190810190610dfa565b61073c565b005b34801561029657600080fd5b5061029f61087b565b6040516102b0959493929190611104565b60405180910390f35b60008082815481106102c757fe5b906000526020600020906005020190506002600454816102e357fe5b048160030154116102f357600080fd5b8060020160149054906101000a900460ff161561030f57600080fd5b8060020160009054906101000a900473ffffffffffffffffffffffffffffffffffffffff1673ffffffffffffffffffffffffffffffffffffffff166108fc82600101549081150290604051600060405180830381858888f1935050505015801561037d573d6000803e3d6000fd5b5060018160020160146101000a81548160ff0219169083151502179055505050565b60036020528060005260406000206000915054906101000a900460ff1681565b60008080549050905090565b600080600080600060025447600080549050600454600160009054906101000a900473ffffffffffffffffffffffffffffffffffffffff16945094509450945094509091929394565b600160009054906101000a900473ffffffffffffffffffffffffffffffffffffffff1681565b60045481565b6000818154811061044d57fe5b9060005260206000209060050201600091509050806000018054600181600116156101000203166002900480601f0160208091040260200160405190810160405280929190818152602001828054600181600116156101000203166002900480156104f95780601f106104ce576101008083540402835291602001916104f9565b820191906000526020600020905b8154815290600101906020018083116104dc57829003601f168201915b5050505050908060010154908060020160009054906101000a900473ffffffffffffffffffffffffffffffffffffffff16908060020160149054906101000a900460ff16908060030154905085565b600160009054906101000a900473ffffffffffffffffffffffffffffffffffffffff1673ffffffffffffffffffffffffffffffffffffffff163373ffffffffffffffffffffffffffffffffffffffff16146105a257600080fd5b6105aa610beb565b6040518060a001604052808581526020018481526020018373ffffffffffffffffffffffffffffffffffffffff16815260200160001515815260200160008152509050600081908060018154018082558091505090600182039060005260206000209060050201600090919290919091506000820151816000019080519060200190610637929190610c32565b506020820151816001015560408201518160020160006101000a81548173ffffffffffffffffffffffffffffffffffffffff021916908373ffffffffffffffffffffffffffffffffffffffff16021790555060608201518160020160146101000a81548160ff0219169083151502179055506080820151816003015550505050505050565b60025481565b60025434116106d057600080fd5b6001600360003373ffffffffffffffffffffffffffffffffffffffff1673ffffffffffffffffffffffffffffffffffffffff16815260200190815260200160002060006101000a81548160ff021916908315150217905550600460008154809291906001019190505550565b600080828154811061074a57fe5b90600052602060002090600502019050600360003373ffffffffffffffffffffffffffffffffffffffff1673ffffffffffffffffffffffffffffffffffffffff16815260200190815260200160002060009054906101000a900460ff166107b057600080fd5b8060040160003373ffffffffffffffffffffffffffffffffffffffff1673ffffffffffffffffffffffffffffffffffffffff16815260200190815260200160002060009054906101000a900460ff161561080957600080fd5b60018160040160003373ffffffffffffffffffffffffffffffffffffffff1673ffffffffffffffffffffffffffffffffffffffff16815260200190815260200160002060006101000a81548160ff02191690831515021790555080600301600081548092919060010191905055505050565b6060806060806060806000805490506040519080825280602002602001820160405280156108bd57816020015b60608152602001906001900390816108a85790505b50905060606000805490506040519080825280602002602001820160405280156108f65781602001602082028038833980820191505090505b509050606060008054905060405190808252806020026020018201604052801561092f5781602001602082028038833980820191505090505b50905060606000805490506040519080825280602002602001820160405280156109685781602001602082028038833980820191505090505b50905060606000805490506040519080825280602002602001820160405280156109a15781602001602082028038833980820191505090505b50905060008090505b600080549050811015610bcf57600081815481106109c457fe5b90600052602060002090600502016000018054600181600116156101000203166002900480601f016020809104026020016040519081016040528092919081815260200182805460018160011615610100020316600290048015610a695780601f10610a3e57610100808354040283529160200191610a69565b820191906000526020600020905b815481529060010190602001808311610a4c57829003601f168201915b5050505050868281518110610a7a57fe5b602002602001018190525060008181548110610a9257fe5b906000526020600020906005020160010154858281518110610ab057fe5b60200260200101818152505060008181548110610ac957fe5b906000526020600020906005020160020160009054906101000a900473ffffffffffffffffffffffffffffffffffffffff16848281518110610b0757fe5b602002602001019073ffffffffffffffffffffffffffffffffffffffff16908173ffffffffffffffffffffffffffffffffffffffff168152505060008181548110610b4e57fe5b906000526020600020906005020160020160149054906101000a900460ff16838281518110610b7957fe5b60200260200101901515908115158152505060008181548110610b9857fe5b906000526020600020906005020160030154828281518110610bb657fe5b60200260200101818152505080806001019150506109aa565b5084848484849950995099509950995050505050509091929394565b6040518060a001604052806060815260200160008152602001600073ffffffffffffffffffffffffffffffffffffffff168152602001600015158152602001600081525090565b828054600181600116156101000203166002900490600052602060002090601f016020900481019282601f10610c7357805160ff1916838001178555610ca1565b82800160010185558215610ca1579182015b82811115610ca0578251825591602001919060010190610c85565b5b509050610cae9190610cb2565b5090565b610cd491905b80821115610cd0576000816000905550600101610cb8565b5090565b90565b600081359050610ce681611474565b92915050565b600081359050610cfb8161148b565b92915050565b600082601f830112610d1257600080fd5b8135610d25610d208261128a565b61125d565b91508082526020830160208301858383011115610d4157600080fd5b610d4c838284611421565b50505092915050565b600081359050610d64816114a2565b92915050565b600060208284031215610d7c57600080fd5b6000610d8a84828501610cd7565b91505092915050565b600080600060608486031215610da857600080fd5b600084013567ffffffffffffffff811115610dc257600080fd5b610dce86828701610d01565b9350506020610ddf86828701610d55565b9250506040610df086828701610cec565b9150509250925092565b600060208284031215610e0c57600080fd5b6000610e1a84828501610d55565b91505092915050565b6000610e2f8383610e8e565b60208301905092915050565b6000610e47838361103b565b60208301905092915050565b6000610e5f8383611059565b905092915050565b6000610e7383836110cb565b60208301905092915050565b610e88816113d9565b82525050565b610e97816113c7565b82525050565b610ea6816113c7565b82525050565b6000610eb7826112f6565b610ec18185611361565b9350610ecc836112b6565b8060005b83811015610efd578151610ee48882610e23565b9750610eef8361132d565b925050600181019050610ed0565b5085935050505092915050565b6000610f1582611301565b610f1f8185611372565b9350610f2a836112c6565b8060005b83811015610f5b578151610f428882610e3b565b9750610f4d8361133a565b925050600181019050610f2e565b5085935050505092915050565b6000610f738261130c565b610f7d8185611383565b935083602082028501610f8f856112d6565b8060005b85811015610fcb5784840389528151610fac8582610e53565b9450610fb783611347565b925060208a01995050600181019050610f93565b50829750879550505050505092915050565b6000610fe882611317565b610ff28185611394565b9350610ffd836112e6565b8060005b8381101561102e5781516110158882610e67565b975061102083611354565b925050600181019050611001565b5085935050505092915050565b611044816113eb565b82525050565b611053816113eb565b82525050565b600061106482611322565b61106e81856113a5565b935061107e818560208601611430565b61108781611463565b840191505092915050565b600061109d82611322565b6110a781856113b6565b93506110b7818560208601611430565b6110c081611463565b840191505092915050565b6110d481611417565b82525050565b6110e381611417565b82525050565b60006020820190506110fe6000830184610e9d565b92915050565b600060a082019050818103600083015261111e8188610f68565b905081810360208301526111328187610fdd565b905081810360408301526111468186610eac565b9050818103606083015261115a8185610f0a565b9050818103608083015261116e8184610fdd565b90509695505050505050565b600060208201905061118f600083018461104a565b92915050565b600060a08201905081810360008301526111af8188611092565b90506111be60208301876110da565b6111cb6040830186610e7f565b6111d8606083018561104a565b6111e560808301846110da565b9695505050505050565b600060208201905061120460008301846110da565b92915050565b600060a08201905061121f60008301886110da565b61122c60208301876110da565b61123960408301866110da565b61124660608301856110da565b6112536080830184610e9d565b9695505050505050565b6000604051905081810181811067ffffffffffffffff8211171561128057600080fd5b8060405250919050565b600067ffffffffffffffff8211156112a157600080fd5b601f19601f8301169050602081019050919050565b6000819050602082019050919050565b6000819050602082019050919050565b6000819050602082019050919050565b6000819050602082019050919050565b600081519050919050565b600081519050919050565b600081519050919050565b600081519050919050565b600081519050919050565b6000602082019050919050565b6000602082019050919050565b6000602082019050919050565b6000602082019050919050565b600082825260208201905092915050565b600082825260208201905092915050565b600082825260208201905092915050565b600082825260208201905092915050565b600082825260208201905092915050565b600082825260208201905092915050565b60006113d2826113f7565b9050919050565b60006113e4826113f7565b9050919050565b60008115159050919050565b600073ffffffffffffffffffffffffffffffffffffffff82169050919050565b6000819050919050565b82818337600083830152505050565b60005b8381101561144e578082015181840152602081019050611433565b8381111561145d576000848401525b50505050565b6000601f19601f8301169050919050565b61147d816113c7565b811461148857600080fd5b50565b611494816113d9565b811461149f57600080fd5b50565b6114ab81611417565b81146114b657600080fd5b5056fea365627a7a72315820351f3b3ecc70dc7e8ab815ec0748217dbf54c164c696ad6d3295d820568f7f806c6578706572696d656e74616cf564736f6c63430005100040",
  "source": "pragma solidity >=0.4.25 <0.7.0;\npragma experimental ABIEncoderV2;\n\ncontract CampaignFactory {\n\tCampaign[] public deployedCampaigns;\n\n\tfunction createCampaign(uint minimum) public {\n\t\tCampaign newCampaign = new Campaign(minimum, msg.sender);\n\t\tdeployedCampaigns.push(newCampaign);\n\t}\n\n\tfunction getDeployedCampaigns() public view returns (Campaign[] memory) {\n\t\treturn deployedCampaigns;\n\t}\n}\n\ncontract Campaign {\n\tstruct Request {\n\t\tstring description;\n\t\tuint value;\n\t\taddress payable recipient;\n\t\tbool complete;\n\t\tuint approvalCount;\n\t\tmapping(address => bool) approvals;\n\t}\n\n\tRequest[] public requests;\n\taddress public manager;\n\tuint public minimumContribution;\n\tmapping(address => bool) public approvers;\n\tuint public approvalCount;\n\n\tmodifier restricted() {\n\t\trequire(msg.sender == manager);\n\t\t_;\n\t}\n\n\tconstructor(uint minimum, address creator) public {\n\t\tmanager = creator;\n\t\tminimumContribution = minimum;\n\t}\n\n\tfunction contribute() public payable {\n\t\trequire(msg.value > minimumContribution);\n\n\t\tapprovers[msg.sender] = true;\n\t\tapprovalCount++;\n\t}\n\n\tfunction createRequest(string memory description, uint value, address payable recipient)\n\t\tpublic restricted {\n\t\t\tRequest memory newRequest = Request({\n\t\t\t\tdescription: description,\n\t\t\t\tvalue: value,\n\t\t\t\trecipient: recipient,\n\t\t\t\tcomplete: false,\n\t\t\t\tapprovalCount: 0\n\t\t\t});\n\n\t\trequests.push(newRequest);\n\t}\n\n\tfunction approveRequest(uint index) public {\n\t\tRequest storage request = requests[index];\n\n\t\trequire(approvers[msg.sender]);\n\t\trequire(!request.approvals[msg.sender]);\n\n\t\trequest.approvals[msg.sender] = true;\n\t\trequest.approvalCount++;\n\t}\n\n\tfunction finalizeRequest(uint index) public {\n\t\tRequest storage request = requests[index];\n\n\t\trequire(request.approvalCount > (approvalCount/2));\n\t\trequire(!request.complete);\n\n\t\trequest.recipient.transfer(request.value);\n\t\trequest.complete = true;\n\t}\n\n\tfunction getSummary() public view returns (uint, uint, uint, uint, address) {\n\t\treturn (\n\t\t\tminimumContribution,\n\t\t\taddress(this).balance,\n\t\t\trequests.length,\n\t\t\tapprovalCount,\n\t\t\tmanager\n\t\t);\n\t}\n\n\tfunction getRequestsCount() public view returns (uint) {\n\t\treturn requests.length;\n\t}\n\n\tfunction getAllRequests() public view returns (string[] memory, uint[] memory, address[] memory, bool[] memory, uint[] memory) {\n\n\t    string[] memory description = new string[](requests.length);\n\t\t\tuint[] memory value = new uint[](requests.length);\n\t\t\taddress[] memory recipient = new address[](requests.length);\n\t\t\tbool[] memory complete = new bool[](requests.length);\n\t\t\tuint[] memory aCount = new uint[](requests.length);\n\n\t    for(uint i = 0; i < requests.length; i++) {\n\n\t        description[i] = requests[i].description;\n\t\t\t\t\tvalue[i] = requests[i].value;\n\t\t\t\t\trecipient[i] = requests[i].recipient;\n\t\t\t\t\tcomplete[i] = requests[i].complete;\n\t\t\t\t\taCount[i] = requests[i].approvalCount;\n\n\t    }\n\n\t    return (description, value, recipient, complete, aCount);\n\n\t}\n\n}\n",
  "sourcePath": "/Users/mattijsnaus/Documents/code/crowdstart/contracts/Campaign.sol",
  "compiler": {
    "name": "solc",
    "version": "0.5.16+commit.9c3226ce.Emscripten.clang"
  },
  "schemaVersion": "3.3.4",
  "updatedAt": "2021-03-24T09:32:49.560Z",
  "devdoc": {
    "methods": {}
  },
  "userdoc": {
    "methods": {}
  }
}